:100000000C9435000C945D000C945D000C945D0024
:100010000C945D000C945D000C945D000C945D00EC
:100020000C945D000C945D000C945D000C945D00DC
:100030000C945D000C945D000C945D000C945D00CC
:100040000C947B000C945D000C9458010C94A60158
:100050000C945D000C945D000C945D000C945D00AC
:100060000C945D000C945D00140311241FBECFEFAF
:10007000D8E0DEBFCDBF11E0A0E0B1E0E8E3F8E0FA
:1000800002C005900D92A631B107D9F711E0A6E1A3
:10009000B1E001C01D92A93CB107E1F710E0CAE64A
:1000A000D0E004C02297FE010E941604C836D10792
:1000B000C9F70E946A030C941A040C94000087EAA2
:1000C00091E060E071E00E94DF0368EE73E080E0A1
:1000D00090E00E94C300089587EA91E040E855E26D
:1000E00060E070E00E94E10187EA91E00E94120363
:1000F0008823D1F308951F920F920FB60F92112407
:100100002F933F938F939F93AF93BF9380911A0147
:1001100090911B01A0911C01B0911D0130911E0115
:100120000196A11DB11D232F2D5F2D3720F02D57D6
:100130000196A11DB11D20931E0180931A01909379
:100140001B01A0931C01B0931D0180911601909199
:100150001701A0911801B09119010196A11DB11DBF
:100160008093160190931701A0931801B093190181
:10017000BF91AF919F918F913F912F910F900FBEA3
:100180000F901F9018959B01AC017FB7F894809158
:10019000160190911701A0911801B091190166B54F
:1001A000A89B05C06F3F19F00196A11DB11D7FBF2F
:1001B000BA2FA92F982F8827860F911DA11DB11D39
:1001C00062E0880F991FAA1FBB1F6A95D1F7BC0177
:1001D0002DC0FFB7F8948091160190911701A0915E
:1001E0001801B0911901E6B5A89B05C0EF3F19F0C1
:1001F0000196A11DB11DFFBFBA2FA92F982F8827E7
:100200008E0F911DA11DB11DE2E0880F991FAA1F3D
:10021000BB1FEA95D1F7861B970B885E9340C8F207
:10022000215030404040504068517C4F21153105ED
:100230004105510571F60895789484B5826084BDB6
:1002400084B5816084BD85B5826085BD85B58160DA
:1002500085BDEEE6F0E0808181608083E1E8F0E03A
:100260001082808182608083808181608083E0E869
:10027000F0E0808181608083E1EBF0E08081846048
:100280008083E0EBF0E0808181608083EAE7F0E04A
:1002900080818460808380818260808380818160AE
:1002A00080838081806880831092C10008950895C2
:1002B0001F920F920FB60F9211242F933F934F93DB
:1002C0008F939F93EF93FF938091C00082FD1DC099
:1002D0004091C60020915F01309160012F5F3F4F38
:1002E0002F73307080916101909162012817390756
:1002F00071F0E0915F01F0916001E15EFE4F40839B
:100300003093600120935F0102C08091C600FF918D
:10031000EF919F918F914F913F912F910F900FBE31
:100320000F901F901895E091B301F091B401E05C3B
:10033000FF4F8191919120813181821B930B8F73AB
:100340009070892B11F00E94570108951F920F920F
:100350000FB60F9211242F933F938F939F93EF9398
:10036000FF932091A3013091A4018091A501909168
:10037000A6012817390731F48091C1008F7D809341
:10038000C10014C0E091A501F091A601ED59FE4F06
:1003900020818091A5019091A60101968F739070A4
:1003A0009093A6018093A5012093C600FF91EF9141
:1003B0009F918F913F912F910F900FBE0F901F90A3
:1003C0001895AF92BF92DF92EF92FF920F931F9317
:1003D000CF93DF93EC017A018B01DD24403081EE75
:1003E000580780E0680780E0780711F0DD24D39497
:1003F00091E0A92EB12CEC89FD89DD2069F0C501C1
:1004000008A002C0880F991F0A94E2F7808360E079
:1004100079E08DE390E005C0108260E874E88EE139
:1004200090E0A80197010E94F20321503040404023
:100430005040569547953795279580E120303807ED
:1004400020F0DD2011F0DD24D6CFE889F989308352
:10045000EA89FB89208319A2EE89FF89408121E086
:1004600030E0C9010C8C02C0880F991F0A94E2F792
:10047000482B4083EE89FF894081C9010D8C02C061
:10048000880F991F0A94E2F7482B4083EE89FF8971
:100490004081C9010E8C02C0880F991F0A94E2F7AF
:1004A000482B4083EE89FF8980810F8C02C0220F88
:1004B000331F0A94E2F7209528232083DF91CF9100
:1004C0001F910F91FF90EF90DF90BF90AF90089534
:1004D000DC011C96ED91FC911D97E05CFF4F219192
:1004E000319180819181281B390B2F733070C901A4
:1004F0000895DC011C96ED91FC911D97E05CFF4F87
:1005000020813181E054F040DF01AE5BBF4F8D911F
:100510009C9111972817390719F42FEF3FEF07C067
:100520008D919C91E80FF91F8081282F30E0C9013F
:100530000895DC011C96ED91FC911D97E05CFF4F46
:1005400020813181E054F040DF01AE5BBF4F8D91DF
:100550009C9111972817390719F42FEF3FEF10C01E
:100560008D919C911197E80FF91F20818D919C919D
:10057000119701968F73907011969C938E9330E033
:10058000C9010895DC0191968C919197882339F0E7
:100590005496ED91FC915597808186FFF9CF919605
:1005A0001C920895CF93DF93EC01EE85FF85E05C0C
:1005B000FF4F20813181E054F0402F5F3F4F2F7378
:1005C0003070DF01AE5BBF4F8D919C911197281762
:1005D0003907D1F3E05CFF4F80819181E054F04016
:1005E000E80FF91F6083EE85FF85E05CFF4F3183E4
:1005F0002083EE89FF89208181E090E00F8C02C08A
:10060000880F991F0A94E2F7282B208381E089A3A1
:10061000EC89FD8980818064808381E090E0DF91B6
:10062000CF91089581E008951092AA011092A90136
:1006300088EE93E0A0E0B0E08093AB019093AC0132
:10064000A093AD01B093AE0189E091E09093A80131
:100650008093A7018FE191E09093B4018093B3015F
:1006600083E691E09093B6018093B50185EC90E02C
:100670009093B8018093B70184EC90E09093BA0115
:100680008093B90180EC90E09093BC018093BB0112
:1006900081EC90E09093BE018093BD0182EC90E0EC
:1006A0009093C0018093BF0186EC90E09093C201CB
:1006B0008093C10184E08093C30183E08093C401EF
:1006C00087E08093C50185E08093C60181E0809337
:1006D000C7010895CF93DF930E941C010E946C0014
:1006E000C3E9D1E00E945F002097E1F30E949301EB
:1006F000F9CFCF92DF92EF92FF920F931F93CF9398
:10070000DF937C016B018A01C0E0D0E00FC0D6010D
:100710006D916D01D701ED91FC910190F081E02D7B
:10072000C7010995C80FD91F0150104001151105C7
:1007300071F7CE01DF91CF911F910F91FF90EF9054
:10074000DF90CF900895EF92FF920F931F938C014B
:10075000DC01ED91FC910190F081E02D6DE00995B7
:100760007C01D801ED91FC910190F081E02DC80150
:100770006AE009959C012E0D3F1DC9011F910F9143
:10078000FF90EF900895CF93DF93EC016115710511
:1007900019F420E030E00FC0DB010D900020E9F7F4
:1007A0001197A61BB70BE881F9810280F381E02D38
:1007B000AD0109959C01C901DF91CF910895EF9298
:1007C000FF920F931F937C010E94C3038C01C7010A
:1007D0000E94A303080F191FC8011F910F91FF90DA
:1007E000EF900895A1E21A2EAA1BBB1BFD010DC0BC
:1007F000AA1FBB1FEE1FFF1FA217B307E407F507D1
:1008000020F0A21BB30BE40BF50B661F771F881FAC
:10081000991F1A9469F760957095809590959B0142
:10082000AC01BD01CF010895EE0FFF1F0590F491BB
:08083000E02D0994F894FFCFBC
:10083800746573740000000000D20279036802999D
:06084800027902C2020069
:00000001FF
